S016000048756D656E5F696E7472756465722E7372656345
S11300000C942A000C9447000C9447000C9447006D
S11300100C9447000C9447000C9447000C94470040
S11300200C94A5030C9466030C9447000C94E00311
S11300300C9447000C9447000C9447000C94470020
S11300400C9447000C9447000C9447000C94470010
S11300500C94470011241FBECFE5D4E0DEBFCDBF12
S113006012E0A0E6B0E0E4E8FFE002C005900D92E3
S1130070AC33B107D9F722E0ACE3B2E001C01D9282
S1130080A234B207E1F70E9458030C94C0070C9401
S1130090000081B58F6081BD089581B5886181BDFF
S11300A011BC08959F92AF92BF92CF92DF92EF92CC
S11300B0FF920F931F93CF93DF93C82F962EC22ED8
S11300C00E9446068C13FCCF8C2D90E00E945F06A4
S11300D07C01009771F1D12C1C141D04E4F4FC0183
S11300E0319780818915D1F0870140E050E0C0E06C
S11300F0D0E05701A40EB51E0E944606F501808388
S11301002196CC15DD0564F4AE01F80181918F01CF
S11301108911EFCF05C0C0E0D0E002C0C0E0D0E05C
S1130120CE0DDF1D219718820E9420068E2D9F2D53
S113013002C080E090E0DF91CF911F910F91FF907A
S1130140EF90DF90CF90BF90AF909F900895CF93A2
S1130150DF9386EB90E00E9426062AE040E050E020
S11301606DE08AE00E945200EC010E9449006BEBB2
S113017070E0CE010E948607892B99F40E944D00FD
S11301808EEB90E00E94A1042FEF8FE997E12150BC
S113019080409040E1F700C00000CE010E94F706C5
S11301A001C0FFCFDF91CF910895CF93DF938CEC03
S11301B090E00E9426060E9449002AE040E050E0B8
S11301C06DE08AE00E945200EC016BEB70E00E944B
S11301D08607892BC9F40E944D000E948804CE0131
S11301E00E94F7068FEC90E00E94A1042FEF8FEDA0
S11301F090E1215080409040E1F700C000000E944F
S113020088040E94A70001C0FFCFDF91CF91089519
S1130210EF92FF920F931F93CF93DF93C82FE62E95
S1130220D22F882321F00E944606C150E1F78D2F7A
S113023090E00E945F068C01009799F0EE2041F057
S1130240EC01F12C0E9446068993F394FE10FACF38
S1130250F801EE0DF11D10820E942006802F912FCF
S113026002C080E090E0DF91CF911F910F91FF9049
S1130270EF900895CF93DF930E945C020E9488045C
S113028084ED90E00E94A1048FEE90E00E94260687
S11302902AE0AE0163E089E00E940801EC0168EF06
S11302A070E00E948607892BA9F40E9488048CEFD1
S11302B090E00E94A1040E947402CE010E94F706FD
S11302C02FEF8FED90E1215080409040E1F700C086
S11302D000000AC02FEF8FEB91E221508040904044
S11302E0E1F700C00000D0CFDF91CF910895CF9304
S11302F0DF9387E091E00E9426062AE040E050E088
S113030065E082E00E940801EC0160E171E00E9476
S11303108607892B39F40E94880486E191E00E94C3
S1130320A104FFCF2FE0AE0162E282E20E945200FC
S1130330EC010E948804CE010E94A1042FEF8FE9F2
S113034097E1215080409040E1F700C00000CE01C9
S11303500E94F706DF91CF9108951F93CF93DF9307
S113036083E391E00E94260624E140E050E062E04D
S113037088E00E940801EC010E949C02182F60E0B2
S11303808FE00E947E04133650F48BEA189F812D6F
S11303901124869586958C5F0E944D0503C088E5DF
S11303A00E948C04CE010E94F706DF91CF911F9129
S11303B00895EF92FF920F931F93CF93DF93CDB7DE
S11303C0DEB72A970FB6F894DEBF0FBECDBF7C010F
S11303D08AE391E00E9426062AE040E050E06DE0C6
S11303E08AE00E9452008C016BEB70E00E94860749
S11303F0892B09F050C0C8010E94F70684E491E0FB
S11304000E944A0682E20E943D068DE491E00E9429
S11304104A064BE050E064E170E0CE0101960E9490
S11304208F07CE0101960E944A0682E20E943D0691
S11304308DE00E943D062FEF8FEB91E2215080402A
S11304409040E1F700C00000C7010E944A068AE11B
S11304508CB92AE040E050E065E082E00E940801A7
S11304608C0160E171E00E948607892B59F40E9497
S1130470880481E591E00E94A104C8010E94F70666
S113048080E00DC0C8010E94F70688E691E00E9452
S1130490A10481E004C0C8010E94F70680E02A9606
S11304A00FB6F894DEBF0FBECDBFDF91CF911F9181
S11304B00F91FF90EF90089512BE83B7856083BFBC
S11304C089B7816089BF7894089580933C021FBCEA
S11304D0811103C084E08EBD02C085E08EBD89B762
S11304E0846089BF7894089589B78E7F89BF61E05D
S11304F08FE00E947E0483E00E944D0508958CE005
S11305000E94B1040E94F30482E891E00E94A104D5
S11305100E945C0280EC8ABB2FEF8FEB91E22150AA
S113052080409040E1F700C000000E9419060E943C
S1130530D5000E94740208959C01A0E080E090E040
S1130540F901EA0FF11D408150ED540F5A3080F447
S1130550BC01660F771F880F991F880F991F880F9A
S1130560991F860F971F50E040535109840F951F20
S1130570AF5FF901EA0FF11D40814111E1CF089508
S11305800F931F93CF93DF930E94880489E991E02E
S11305900E94A10460E070E08FE00E94C805EC01B5
S11305A00E9488048AEA91E00E94A10460E070E05D
S11305B08FE00E94C8058C01BC01CE010E94860711
S11305C0892BC9F4C8010E94F7064AE050E064E1AF
S11305D070E0CE010E949F0760E08EE190E00E94EF
S11305E0AF070E94880481EB91E00E94A104CE0130
S11305F00E94F7060FC00E9488048EEC91E00E94CE
S1130600A1042FEF8FEB91E2215080409040E1F75D
S113061000C00000DF91CF911F910F9108950E94B7
S1130620770180E00E94650261E080E00E947E0420
S113063080EF91E00E94A1042FEF8FEB91E2215013
S113064080409040E1F700C000000E94110586B38D
S1130650807F803F11F4C89BFACF89B78B7F89BF15
S113066086B3807F803F51F00E946B05C82F0E94A3
S1130670F304C33299F40E94C00210C00E9488049B
S11306800E945C020E94F30481E092E00E94A104B3
S11306900E94740281E192E00E94D9012FEF8FE958
S11306A097E1215080409040E1F700C00000B7CFAF
S11306B08EEF8ABB8FE087BB0E947F020E94770186
S11306C00E943A010E9488040E940F031F920F9215
S11306D00FB60F9211242F933F934F935F936F9311
S11306E07F938F939F93AF93BF93EF93FF938091E7
S11306F03D0291E0980F90933D02877F873011F07F
S1130700983161F461E08FE00E947E0480913D02A3
S113071086958695869581500E944D0580913D026F
S1130720893110F010923D02FF91EF91BF91AF918A
S11307309F918F917F916F915F914F913F912F91F5
S11307400F900FBE0F901F9018951F920F920FB627
S11307500F9211242F933F934F935F936F937F9343
S11307608F939F93AF93BF93EF93FF9380913C023A
S1130770882399F00E94880480E392E00E94A104F7
S11307802FEF8FE997E1215080409040E1F700C0BE
S113079000000E9488040E940F030E94AD01FF9193
S11307A0EF91BF91AF919F918F917F916F915F91E5
S11307B04F913F912F910F900FBE0F901F9018955E
S11307C01F920F920FB60F9211242F933F934F93C2
S11307D05F936F937F938F939F93AF93BF93EF93A5
S11307E0FF938CB10E948C04FF91EF91BF91AF9164
S11307F09F918F917F916F915F914F913F912F9135
S11308000F900FBE0F901F901895AD9A00C0AD9831
S11308100895CF93C82F662311F0AF9A01C0AF9803
S1130820AE98A39AA29AA19AA09AA898A998AA98CD
S1130830AB98CC230CF4A89AC6FDA99AC5FDAA9A34
S1130840C4FDAB9A0E940504A898A998AA98AB98ED
S1130850C3FDA89AC2FDA99AC1FDAA9AC0FDAB9A8C
S11308600E940504AB9AAA9AA99AA89ACF910895CE
S1130870882311F0AF9A01C0AF98AE9AA398A298BA
S1130880A198A098AD9A00C09B9902C080E001C0D5
S113089080E19A9980629999806498998068AD986A
S11308A000C0AD9A00C09B9981609A998260999921
S11308B0846098998860AD98089580E00E94380417
S11308C08823DCF385E090E00197F1F780E00E9453
S11308D038040895CF93C82F0E945D0460E08C2FE4
S11308E00E940904CF910895CF93C82F0E945D04FC
S11308F061E08C2F0E940904CF910895611104C016
S113090080580E946A04089580540E946A040895DD
S113091081E00E946A040895CF93C82F0E945D0469
S1130920CA3049F4803410F480E401C080E0805877
S11309300E946A0404C061E08C2F0E940904CF91D4
S11309400895CF93DF93EC012196FC0180818823E5
S113095029F00E948C0489918111FBCFDF91CF9102
S11309600895CF93C82FA79AA69AA59AA39AA29A54
S1130970A19AA09AE0ECFCEA3197F1F7AA9AAB9A13
S11309800E940504E5EEF5E33197F1F70E940504B2
S1130990E0EBF0E03197F1F70E940504E0EBF0E0C2
S11309A03197F1F7AB980E940504E0EBF0E0319742
S11309B0F1F788E20E946A0488E00E946A040E94B7
S11309C0880486E00E946A048C2F0E946A04CF91F6
S11309D0089590E0891710F0AC9A01C0AC989F5F1D
S11309E09F3FC1F708950F931F93CF93DF93A49A6A
S11309F010E006E908C08D2F0E94E904C150D9F720
S1130A001F5F163041F0119FD02D1124D19FD02D9E
S1130A101124C02FF0CFAC9ADF91CF911F910F9189
S1130A200895A49AAC980895BF92CF92DF92EF9262
S1130A30FF920F931F93CF93DF9380E20E948C0465
S1130A4080E00E943804B82E80E40E946A0406E61E
S1130A5010E00F2EF6EAEF2EF0E0FF2EF02DC12C61
S1130A600CC089910E947404D39488E0D812F9CF01
S1130A70085F1F4F0E151F0519F0E801DC2CF1CF9C
S1130A808B2D0E946A04DF91CF911F910F91FF90EB
S1130A90EF90DF90CF90BF900895CF93C82F0E941E
S1130AA014058C2F0E947404CF910895CF9384E190
S1130AB091E00197F1F780E00E943804CFE7C80F76
S1130AC08C2F0E946A0480E20E948C048C2F0E9466
S1130AD06A04CF910895CF93DF938FE087BB86B3E9
S1130AE0807F803FE1F322E383E091E02150804066
S1130AF09040E1F700C000C040E050E0E1E0F0E0E9
S1130B00D5E0C0E0DA01CF01042E02C0880F991F9E
S1130B100A94E2F7809588BB8FEF9BE60197F1F783
S1130B2000C00000B49B0EC08D2F9C2F26B3BC01C7
S1130B3030E0082E02C0359527950A94E2F720FD8F
S1130B401AC002C064E070E086B3807F803FE1F7A2
S1130B508FEF9BE60197F1F700C0000018BA8FEF02
S1130B6086BBAA0FBB1FAA0FBB1FA60FB71FAE558C
S1130B70BF4F8C910AC0019688309105B9F64F5F3A
S1130B805F4F4430510509F0BDCFDF91CF910895F7
S1130B90CF92DF92EF92FF920F931F93CF93DF9345
S1130BA0C82E90E00E945F068C010097B9F1D12C09
S1130BB01C141D043CF5FC0131978081833229F11A
S1130BC020E030E0C0E0D0E07801E20EF31E0E94A5
S1130BD06B05F70180838A3221F40E94560522971F
S1130BE004C0833211F00E948C042196CC15DD05DB
S1130BF074F49E01F801EC0FFD1F3197808183325C
S1130C0019F705C0C0E0D0E002C0C0E0D0E0C00FDA
S1130C10D11F21971882802F912F02C080E090E08D
S1130C20DF91CF911F910F91FF90EF90DF90CF90C4
S1130C30089588E18AB986E880BD87E489B9089572
S1130C405F9B03C08CB15F99FDCF0895CF93DF9371
S1130C50EC010E9420068881882341F0FE01319630
S1130C605D9BFECF8CB981918111FACF5D9BFECF44
S1130C708DE08CB9DF91CF910895CF93C82F0E9456
S1130C8020065D9BFECFCCB9CF9108955F9BFECF2C
S1130C908CB10895CF93DF93EC010E9420068881E4
S1130CA0882341F0FE0131965D9BFECF8CB9819182
S1130CB08111FACF5D9BFECFDF91CF910895CF9341
S1130CC0DF938230910510F482E090E0E0914002DD
S1130CD0F091410220E030E0A0E0B0E0309739F13B
S1130CE04081518148175907B8F04817590771F4E2
S1130CF082819381109729F013969C938E93129777
S1130D002CC0909341028093400227C021153105E5
S1130D1031F04217530718F0A901DB0101C0EF01BC
S1130D209A01BD01DF010280F381E02DD7CF2115A7
S1130D303105F9F0281B390B2430310580F48A8100
S1130D409B816115710521F0FB019383828304C0AB
S1130D509093410280934002FE01329644C0FE010A
S1130D60E20FF31F81939193225031093983288331
S1130D703AC020913E0230913F02232B41F420914E
S1130D8062003091630030933F0220933E02209131
S1130D906000309161002115310541F42DB73EB753
S1130DA04091640050916500241B350BE0913E0294
S1130DB0F0913F02E217F307A0F42E1B3F0B281714
S1130DC0390778F0AC014E5F5F4F2417350748F0C0
S1130DD04E0F5F1F50933F0240933E0281939193C5
S1130DE002C0E0E0F0E0CF01DF91CF910895CF930E
S1130DF0DF93009709F487C0FC01329713821282B3
S1130E00C0914002D0914102209781F42081318128
S1130E10280F391F80913E0290913F028217930759
S1130E2079F5F0933F02E0933E026DC0DE0120E0CD
S1130E3030E0AE17BF0750F412964D915C911397B2
S1130E409D014115510509F1DA01F3CFB383A28362
S1130E5040815181840F951F8A179B0771F48D91EE
S1130E609C911197840F951F02969183808312960B
S1130E708D919C911397938382832115310529F4D5
S1130E80F0934102E09340023EC0D9011396FC93D3
S1130E90EE9312974D915D91A40FB51FEA17FB07CE
S1130EA079F480819181840F951F0296D90111965E
S1130EB09C938E938281938113969C938E93129725
S1130EC0E0E0F0E08A819B81009719F0FE01EC01DB
S1130ED0F9CFCE01029628813981820F931F209188
S1130EE03E0230913F022817390769F4309729F4FC
S1130EF0109241021092400202C013821282D093D7
S1130F003F02C0933E02DF91CF910895FB01DC01C3
S1130F108D91019080190110D9F3990B0895DC018A
S1130F20CB01FC01E199FECF06C0FFBBEEBBE09A0A
S1130F3031960DB20D9241505040B8F70895DC013E
S1130F40A40FB51F4150504048F0CB01840F951FAA
S1130F502E910E94B00741505040D0F70895262F9B
S1130F60E199FECF9FBB8EBBE09A01970DB20216AA
S1130F7031F02DBB0FB6F894E29AE19A0FBE0895B2
S1070F80F894FFCF0F
S1130F840000420220000000000404000000000EDF
S1130F940A0A0A0A0E001F1111111111111FFFFF71
S1130FA4FFFFFFFFFFFF000000000000101000001F
S1130FB4000008081818000004040C0C1C1C02028D
S1130FC406060E0E1E1E313233413435364237388E
S1130FD439432A30234441544530004F4B00456380
S1130FE4686F2064697361626C65640041540044F1
S1130FF44F4E45005265676973746572696E672064
S1131004746F0A746865206E6574776F726B00413F
S1131014542B435245473F00302C310052656769D5
S11310247374657265640041542B4353504E3F00FE
S11310344552524F5200496E736572742053494DA0
S11310442063617264200A616E6420726573746142
S113105472740041542B4353510041542B434D4764
S1131064463D310041542B434D47533D002B393108
S1131074004D6573736167652073656E64696E679B
S11310840A6661696C6564006D61737361676520E8
S113109473656E740A7375636365737366756C6CD8
S11310A4790020202073797374656D0A696E6974FC
S11310B469616C697A696E670054797065206E653C
S11310C477206E756D6265720A00616761696E0AE4
S11310D4006E756D626572206368616E6765642075
S11310E40A7375636365737366756C6C79006E75E6
S11310F46D62657273206E6F742073616D650A632B
S113110468616E6765206E6F742073617665640030
S11311142320466F72206368616E6765206E756D67
S11311240073656E64696E67206D617373616765CE
S113113400496E74727564657220646574656374C1
S1131144656420696E20796F757220726F6F6D000B
S10F115420202054494D454F5554000004
S9030000FC
